{"abi":[{"type":"constructor","inputs":[{"name":"_name","type":"string","internalType":"string"},{"name":"_symbol","type":"string","internalType":"string"},{"name":"initialSupply","type":"uint256","internalType":"uint256"}],"stateMutability":"nonpayable"},{"type":"function","name":"allowance","inputs":[{"name":"","type":"address","internalType":"address"},{"name":"","type":"address","internalType":"address"}],"outputs":[{"name":"","type":"uint256","internalType":"uint256"}],"stateMutability":"view"},{"type":"function","name":"approve","inputs":[{"name":"spender","type":"address","internalType":"address"},{"name":"amount","type":"uint256","internalType":"uint256"}],"outputs":[{"name":"","type":"bool","internalType":"bool"}],"stateMutability":"nonpayable"},{"type":"function","name":"balance","inputs":[{"name":"","type":"address","internalType":"address"}],"outputs":[{"name":"","type":"uint256","internalType":"uint256"}],"stateMutability":"view"},{"type":"function","name":"balanceOf","inputs":[{"name":"account","type":"address","internalType":"address"}],"outputs":[{"name":"","type":"uint256","internalType":"uint256"}],"stateMutability":"view"},{"type":"function","name":"burn","inputs":[{"name":"amount","type":"uint256","internalType":"uint256"}],"outputs":[{"name":"","type":"bool","internalType":"bool"}],"stateMutability":"nonpayable"},{"type":"function","name":"decimals","inputs":[],"outputs":[{"name":"","type":"uint256","internalType":"uint256"}],"stateMutability":"view"},{"type":"function","name":"feeCollector","inputs":[],"outputs":[{"name":"","type":"address","internalType":"address"}],"stateMutability":"view"},{"type":"function","name":"getBalance","inputs":[],"outputs":[{"name":"","type":"uint256","internalType":"uint256"}],"stateMutability":"view"},{"type":"function","name":"getTokenType","inputs":[],"outputs":[{"name":"","type":"string","internalType":"string"}],"stateMutability":"pure"},{"type":"function","name":"mint","inputs":[{"name":"to","type":"address","internalType":"address"},{"name":"amount","type":"uint256","internalType":"uint256"}],"outputs":[{"name":"","type":"bool","internalType":"bool"}],"stateMutability":"nonpayable"},{"type":"function","name":"name","inputs":[],"outputs":[{"name":"","type":"string","internalType":"string"}],"stateMutability":"view"},{"type":"function","name":"owner","inputs":[],"outputs":[{"name":"","type":"address","internalType":"address"}],"stateMutability":"view"},{"type":"function","name":"pause","inputs":[],"outputs":[],"stateMutability":"nonpayable"},{"type":"function","name":"paused","inputs":[],"outputs":[{"name":"","type":"bool","internalType":"bool"}],"stateMutability":"view"},{"type":"function","name":"setFeeCollector","inputs":[{"name":"newCollector","type":"address","internalType":"address"}],"outputs":[],"stateMutability":"nonpayable"},{"type":"function","name":"setFeePercent","inputs":[{"name":"_feePercent","type":"uint256","internalType":"uint256"}],"outputs":[],"stateMutability":"nonpayable"},{"type":"function","name":"symbol","inputs":[],"outputs":[{"name":"","type":"string","internalType":"string"}],"stateMutability":"view"},{"type":"function","name":"totalCollectedFees","inputs":[],"outputs":[{"name":"","type":"uint256","internalType":"uint256"}],"stateMutability":"view"},{"type":"function","name":"totalSupply","inputs":[],"outputs":[{"name":"","type":"uint256","internalType":"uint256"}],"stateMutability":"view"},{"type":"function","name":"transfer","inputs":[{"name":"to","type":"address","internalType":"address"},{"name":"amount","type":"uint256","internalType":"uint256"}],"outputs":[{"name":"","type":"bool","internalType":"bool"}],"stateMutability":"nonpayable"},{"type":"function","name":"transferFeePercent","inputs":[],"outputs":[{"name":"","type":"uint256","internalType":"uint256"}],"stateMutability":"view"},{"type":"function","name":"transferFrom","inputs":[{"name":"from","type":"address","internalType":"address"},{"name":"to","type":"address","internalType":"address"},{"name":"amount","type":"uint256","internalType":"uint256"}],"outputs":[{"name":"","type":"bool","internalType":"bool"}],"stateMutability":"nonpayable"},{"type":"function","name":"transferOwnership","inputs":[{"name":"newOwner","type":"address","internalType":"address"}],"outputs":[],"stateMutability":"nonpayable"},{"type":"function","name":"unpause","inputs":[],"outputs":[],"stateMutability":"nonpayable"},{"type":"event","name":"Approve","inputs":[{"name":"from","type":"address","indexed":true,"internalType":"address"},{"name":"spender","type":"address","indexed":true,"internalType":"address"},{"name":"amount","type":"uint256","indexed":false,"internalType":"uint256"}],"anonymous":false},{"type":"event","name":"Burn","inputs":[{"name":"owner","type":"address","indexed":true,"internalType":"address"},{"name":"amount","type":"uint256","indexed":true,"internalType":"uint256"}],"anonymous":false},{"type":"event","name":"Mint","inputs":[{"name":"owner","type":"address","indexed":true,"internalType":"address"},{"name":"amount","type":"uint256","indexed":true,"internalType":"uint256"}],"anonymous":false},{"type":"event","name":"Transfer","inputs":[{"name":"from","type":"address","indexed":true,"internalType":"address"},{"name":"to","type":"address","indexed":true,"internalType":"address"},{"name":"amount","type":"uint256","indexed":false,"internalType":"uint256"}],"anonymous":false}],"bytecode":{"object":"0x60806040526002600755348015610014575f5ffd5b50604051612b42380380612b4283398181016040528101906100369190610336565b828282335f5f6101000a81548173ffffffffffffffffffffffffffffffffffffffff021916908373ffffffffffffffffffffffffffffffffffffffff160217905550826001908161008791906105c5565b50816002908161009791906105c5565b506012600481905550600454600a6100af91906107f0565b816100ba919061083a565b60038190555060035460055f3373ffffffffffffffffffffffffffffffffffffffff1673ffffffffffffffffffffffffffffffffffffffff1681526020019081526020015f20819055503373ffffffffffffffffffffffffffffffffffffffff165f73ffffffffffffffffffffffffffffffffffffffff167fddf252ad1be2c89b69c2b068fc378daa952ba7f163c4a11628f55a4df523b3ef600354604051610163919061088a565b60405180910390a35050503360085f6101000a81548173ffffffffffffffffffffffffffffffffffffffff021916908373ffffffffffffffffffffffffffffffffffffffff1602179055505050506108a3565b5f604051905090565b5f5ffd5b5f5ffd5b5f5ffd5b5f5ffd5b5f601f19601f8301169050919050565b7f4e487b71000000000000000000000000000000000000000000000000000000005f52604160045260245ffd5b610215826101cf565b810181811067ffffffffffffffff82111715610234576102336101df565b5b80604052505050565b5f6102466101b6565b9050610252828261020c565b919050565b5f67ffffffffffffffff821115610271576102706101df565b5b61027a826101cf565b9050602081019050919050565b8281835e5f83830152505050565b5f6102a76102a284610257565b61023d565b9050828152602081018484840111156102c3576102c26101cb565b5b6102ce848285610287565b509392505050565b5f82601f8301126102ea576102e96101c7565b5b81516102fa848260208601610295565b91505092915050565b5f819050919050565b61031581610303565b811461031f575f5ffd5b50565b5f815190506103308161030c565b92915050565b5f5f5f6060848603121561034d5761034c6101bf565b5b5f84015167ffffffffffffffff81111561036a576103696101c3565b5b610376868287016102d6565b935050602084015167ffffffffffffffff811115610397576103966101c3565b5b6103a3868287016102d6565b92505060406103b486828701610322565b9150509250925092565b5f81519050919050565b7f4e487b71000000000000000000000000000000000000000000000000000000005f52602260045260245ffd5b5f600282049050600182168061040c57607f821691505b60208210810361041f5761041e6103c8565b5b50919050565b5f819050815f5260205f209050919050565b5f6020601f8301049050919050565b5f82821b905092915050565b5f600883026104817fffffffffffffffffffffffffffffffffffffffffffffffffffffffffffffffff82610446565b61048b8683610446565b95508019841693508086168417925050509392505050565b5f819050919050565b5f6104c66104c16104bc84610303565b6104a3565b610303565b9050919050565b5f819050919050565b6104df836104ac565b6104f36104eb826104cd565b848454610452565b825550505050565b5f5f905090565b61050a6104fb565b6105158184846104d6565b505050565b5b818110156105385761052d5f82610502565b60018101905061051b565b5050565b601f82111561057d5761054e81610425565b61055784610437565b81016020851015610566578190505b61057a61057285610437565b83018261051a565b50505b505050565b5f82821c905092915050565b5f61059d5f1984600802610582565b1980831691505092915050565b5f6105b5838361058e565b9150826002028217905092915050565b6105ce826103be565b67ffffffffffffffff8111156105e7576105e66101df565b5b6105f182546103f5565b6105fc82828561053c565b5f60209050601f83116001811461062d575f841561061b578287015190505b61062585826105aa565b86555061068c565b601f19841661063b86610425565b5f5b828110156106625784890151825560018201915060208501945060208101905061063d565b8683101561067f578489015161067b601f89168261058e565b8355505b6001600288020188555050505b505050505050565b7f4e487b71000000000000000000000000000000000000000000000000000000005f52601160045260245ffd5b5f8160011c9050919050565b5f5f8291508390505b6001851115610716578086048111156106f2576106f1610694565b5b60018516156107015780820291505b808102905061070f856106c1565b94506106d6565b94509492505050565b5f8261072e57600190506107e9565b8161073b575f90506107e9565b8160018114610751576002811461075b5761078a565b60019150506107e9565b60ff84111561076d5761076c610694565b5b8360020a91508482111561078457610783610694565b5b506107e9565b5060208310610133831016604e8410600b84101617156107bf5782820a9050838111156107ba576107b9610694565b5b6107e9565b6107cc84848460016106cd565b925090508184048111156107e3576107e2610694565b5b81810290505b9392505050565b5f6107fa82610303565b915061080583610303565b92506108327fffffffffffffffffffffffffffffffffffffffffffffffffffffffffffffffff848461071f565b905092915050565b5f61084482610303565b915061084f83610303565b925082820261085d81610303565b9150828204841483151761087457610873610694565b5b5092915050565b61088481610303565b82525050565b5f60208201905061089d5f83018461087b565b92915050565b612292806108b05f395ff3fe608060405234801561000f575f5ffd5b5060043610610156575f3560e01c80638456cb59116100c1578063a9059cbb1161007a578063a9059cbb146103a4578063c415b95c146103d4578063dd62ed3e146103f2578063e3d670d714610422578063f2fde38b14610452578063fcab18191461046e57610156565b80638456cb59146103065780638da5cb5b1461031057806394544e641461032e57806395d89b411461034c57806396bd072c1461036a578063a42dce801461038857610156565b80633f4ba83a116101135780633f4ba83a1461023257806340c10f191461023c57806342966c681461026c5780635c975abb1461029c57806370a08231146102ba5780637ce3489b146102ea57610156565b806306fdde031461015a578063095ea7b31461017857806312065fe0146101a857806318160ddd146101c657806323b872dd146101e4578063313ce56714610214575b5f5ffd5b61016261048c565b60405161016f9190611972565b60405180910390f35b610192600480360381019061018d9190611a23565b610518565b60405161019f9190611a7b565b60405180910390f35b6101b0610605565b6040516101bd9190611aa3565b60405180910390f35b6101ce610649565b6040516101db9190611aa3565b60405180910390f35b6101fe60048036038101906101f99190611abc565b61064f565b60405161020b9190611a7b565b60405180910390f35b61021c61099d565b6040516102299190611aa3565b60405180910390f35b61023a6109a3565b005b61025660048036038101906102519190611a23565b610a9a565b6040516102639190611a7b565b60405180910390f35b61028660048036038101906102819190611b0c565b610d46565b6040516102939190611a7b565b60405180910390f35b6102a4610f72565b6040516102b19190611a7b565b60405180910390f35b6102d460048036038101906102cf9190611b37565b610f84565b6040516102e19190611aa3565b60405180910390f35b61030460048036038101906102ff9190611b0c565b610fca565b005b61030e6110a6565b005b61031861119f565b6040516103259190611b71565b60405180910390f35b6103366111c3565b6040516103439190611aa3565b60405180910390f35b6103546111c9565b6040516103619190611972565b60405180910390f35b610372611255565b60405161037f9190611aa3565b60405180910390f35b6103a2600480360381019061039d9190611b37565b61125b565b005b6103be60048036038101906103b99190611a23565b61139a565b6040516103cb9190611a7b565b60405180910390f35b6103dc61172d565b6040516103e99190611b71565b60405180910390f35b61040c60048036038101906104079190611b8a565b611752565b6040516104199190611aa3565b60405180910390f35b61043c60048036038101906104379190611b37565b611772565b6040516104499190611aa3565b60405180910390f35b61046c60048036038101906104679190611b37565b611787565b005b6104766118c5565b6040516104839190611972565b60405180910390f35b6001805461049990611bf5565b80601f01602080910402602001604051908101604052809291908181526020018280546104c590611bf5565b80156105105780601f106104e757610100808354040283529160200191610510565b820191905f5260205f20905b8154815290600101906020018083116104f357829003601f168201915b505050505081565b5f8160065f3373ffffffffffffffffffffffffffffffffffffffff1673ffffffffffffffffffffffffffffffffffffffff1681526020019081526020015f205f8573ffffffffffffffffffffffffffffffffffffffff1673ffffffffffffffffffffffffffffffffffffffff1681526020019081526020015f20819055508273ffffffffffffffffffffffffffffffffffffffff163373ffffffffffffffffffffffffffffffffffffffff167f6e11fb1b7f119e3f2fa29896ef5fdf8b8a2d0d4df6fe90ba8668e7d8b2ffa25e846040516105f39190611aa3565b60405180910390a36001905092915050565b5f60055f3373ffffffffffffffffffffffffffffffffffffffff1673ffffffffffffffffffffffffffffffffffffffff1681526020019081526020015f2054905090565b60035481565b5f5f73ffffffffffffffffffffffffffffffffffffffff168373ffffffffffffffffffffffffffffffffffffffff16036106be576040517f08c379a00000000000000000000000000000000000000000000000000000000081526004016106b590611c6f565b60405180910390fd5b60065f8573ffffffffffffffffffffffffffffffffffffffff1673ffffffffffffffffffffffffffffffffffffffff1681526020019081526020015f205f3373ffffffffffffffffffffffffffffffffffffffff1673ffffffffffffffffffffffffffffffffffffffff1681526020019081526020015f2054821115610779576040517f08c379a000000000000000000000000000000000000000000000000000000000815260040161077090611cd7565b60405180910390fd5b60055f8573ffffffffffffffffffffffffffffffffffffffff1673ffffffffffffffffffffffffffffffffffffffff1681526020019081526020015f20548211156107f9576040517f08c379a00000000000000000000000000000000000000000000000000000000081526004016107f090611d3f565b60405180910390fd5b8160065f8673ffffffffffffffffffffffffffffffffffffffff1673ffffffffffffffffffffffffffffffffffffffff1681526020019081526020015f205f3373ffffffffffffffffffffffffffffffffffffffff1673ffffffffffffffffffffffffffffffffffffffff1681526020019081526020015f205f8282546108809190611d8a565b925050819055508160055f8673ffffffffffffffffffffffffffffffffffffffff1673ffffffffffffffffffffffffffffffffffffffff1681526020019081526020015f205f8282546108d39190611d8a565b925050819055508160055f8573ffffffffffffffffffffffffffffffffffffffff1673ffffffffffffffffffffffffffffffffffffffff1681526020019081526020015f205f8282546109269190611dbd565b925050819055508273ffffffffffffffffffffffffffffffffffffffff168473ffffffffffffffffffffffffffffffffffffffff167fddf252ad1be2c89b69c2b068fc378daa952ba7f163c4a11628f55a4df523b3ef8460405161098a9190611aa3565b60405180910390a3600190509392505050565b60045481565b3373ffffffffffffffffffffffffffffffffffffffff165f5f9054906101000a900473ffffffffffffffffffffffffffffffffffffffff1673ffffffffffffffffffffffffffffffffffffffff1614610a31576040517f08c379a0000000000000000000000000000000000000000000000000000000008152600401610a2890611e3a565b60405180910390fd5b5f60149054906101000a900460ff16610a7f576040517f08c379a0000000000000000000000000000000000000000000000000000000008152600401610a7690611ea2565b60405180910390fd5b5f5f60146101000a81548160ff021916908315150217905550565b5f3373ffffffffffffffffffffffffffffffffffffffff165f5f9054906101000a900473ffffffffffffffffffffffffffffffffffffffff1673ffffffffffffffffffffffffffffffffffffffff1614610b29576040517f08c379a0000000000000000000000000000000000000000000000000000000008152600401610b2090611e3a565b60405180910390fd5b5f60149054906101000a900460ff1615610b78576040517f08c379a0000000000000000000000000000000000000000000000000000000008152600401610b6f90611f0a565b60405180910390fd5b5f8211610bba576040517f08c379a0000000000000000000000000000000000000000000000000000000008152600401610bb190611f72565b60405180910390fd5b5f73ffffffffffffffffffffffffffffffffffffffff168373ffffffffffffffffffffffffffffffffffffffff1603610c28576040517f08c379a0000000000000000000000000000000000000000000000000000000008152600401610c1f90611fda565b60405180910390fd5b8160055f8573ffffffffffffffffffffffffffffffffffffffff1673ffffffffffffffffffffffffffffffffffffffff1681526020019081526020015f205f828254610c749190611dbd565b925050819055508160035f828254610c8c9190611dbd565b92505081905550818373ffffffffffffffffffffffffffffffffffffffff167f0f6798a560793a54c3bcfe86a93cde1e73087d944c0ea20544137d412139688560405160405180910390a38273ffffffffffffffffffffffffffffffffffffffff165f73ffffffffffffffffffffffffffffffffffffffff167fddf252ad1be2c89b69c2b068fc378daa952ba7f163c4a11628f55a4df523b3ef84604051610d349190611aa3565b60405180910390a36001905092915050565b5f3373ffffffffffffffffffffffffffffffffffffffff165f5f9054906101000a900473ffffffffffffffffffffffffffffffffffffffff1673ffffffffffffffffffffffffffffffffffffffff1614610dd5576040517f08c379a0000000000000000000000000000000000000000000000000000000008152600401610dcc90611e3a565b60405180910390fd5b60055f3373ffffffffffffffffffffffffffffffffffffffff1673ffffffffffffffffffffffffffffffffffffffff1681526020019081526020015f2054821115610e55576040517f08c379a0000000000000000000000000000000000000000000000000000000008152600401610e4c90612042565b60405180910390fd5b8160055f3373ffffffffffffffffffffffffffffffffffffffff1673ffffffffffffffffffffffffffffffffffffffff1681526020019081526020015f205f828254610ea19190611d8a565b925050819055508160035f828254610eb99190611d8a565b92505081905550813373ffffffffffffffffffffffffffffffffffffffff167fcc16f5dbb4873280815c1ee09dbd06736cffcc184412cf7a71a0fdb75d397ca560405160405180910390a35f73ffffffffffffffffffffffffffffffffffffffff163373ffffffffffffffffffffffffffffffffffffffff167fddf252ad1be2c89b69c2b068fc378daa952ba7f163c4a11628f55a4df523b3ef84604051610f619190611aa3565b60405180910390a360019050919050565b5f60149054906101000a900460ff1681565b5f60055f8373ffffffffffffffffffffffffffffffffffffffff1673ffffffffffffffffffffffffffffffffffffffff1681526020019081526020015f20549050919050565b3373ffffffffffffffffffffffffffffffffffffffff165f5f9054906101000a900473ffffffffffffffffffffffffffffffffffffffff1673ffffffffffffffffffffffffffffffffffffffff1614611058576040517f08c379a000000000000000000000000000000000000000000000000000000000815260040161104f90611e3a565b60405180910390fd5b600a81111561109c576040517f08c379a0000000000000000000000000000000000000000000000000000000008152600401611093906120aa565b60405180910390fd5b8060078190555050565b3373ffffffffffffffffffffffffffffffffffffffff165f5f9054906101000a900473ffffffffffffffffffffffffffffffffffffffff1673ffffffffffffffffffffffffffffffffffffffff1614611134576040517f08c379a000000000000000000000000000000000000000000000000000000000815260040161112b90611e3a565b60405180910390fd5b5f60149054906101000a900460ff1615611183576040517f08c379a000000000000000000000000000000000000000000000000000000000815260040161117a90611f0a565b60405180910390fd5b60015f60146101000a81548160ff021916908315150217905550565b5f5f9054906101000a900473ffffffffffffffffffffffffffffffffffffffff1681565b60075481565b600280546111d690611bf5565b80601f016020809104026020016040519081016040528092919081815260200182805461120290611bf5565b801561124d5780601f106112245761010080835404028352916020019161124d565b820191905f5260205f20905b81548152906001019060200180831161123057829003601f168201915b505050505081565b60095481565b3373ffffffffffffffffffffffffffffffffffffffff165f5f9054906101000a900473ffffffffffffffffffffffffffffffffffffffff1673ffffffffffffffffffffffffffffffffffffffff16146112e9576040517f08c379a00000000000000000000000000000000000000000000000000000000081526004016112e090611e3a565b60405180910390fd5b5f73ffffffffffffffffffffffffffffffffffffffff168173ffffffffffffffffffffffffffffffffffffffff1603611357576040517f08c379a000000000000000000000000000000000000000000000000000000000815260040161134e90612138565b60405180910390fd5b8060085f6101000a81548173ffffffffffffffffffffffffffffffffffffffff021916908373ffffffffffffffffffffffffffffffffffffffff16021790555050565b5f5f60149054906101000a900460ff16156113ea576040517f08c379a00000000000000000000000000000000000000000000000000000000081526004016113e190611f0a565b60405180910390fd5b5f73ffffffffffffffffffffffffffffffffffffffff168373ffffffffffffffffffffffffffffffffffffffff1603611458576040517f08c379a000000000000000000000000000000000000000000000000000000000815260040161144f90611c6f565b60405180910390fd5b60055f3373ffffffffffffffffffffffffffffffffffffffff1673ffffffffffffffffffffffffffffffffffffffff1681526020019081526020015f20548211156114d8576040517f08c379a00000000000000000000000000000000000000000000000000000000081526004016114cf90611d3f565b60405180910390fd5b5f6064600754846114e99190612156565b6114f391906121c4565b90505f81846115029190611d8a565b90508360055f3373ffffffffffffffffffffffffffffffffffffffff1673ffffffffffffffffffffffffffffffffffffffff1681526020019081526020015f205f8282546115509190611d8a565b925050819055508060055f8773ffffffffffffffffffffffffffffffffffffffff1673ffffffffffffffffffffffffffffffffffffffff1681526020019081526020015f205f8282546115a39190611dbd565b925050819055508160055f60085f9054906101000a900473ffffffffffffffffffffffffffffffffffffffff1673ffffffffffffffffffffffffffffffffffffffff1673ffffffffffffffffffffffffffffffffffffffff1681526020019081526020015f205f8282546116179190611dbd565b925050819055508160095f82825461162f9190611dbd565b925050819055508473ffffffffffffffffffffffffffffffffffffffff163373ffffffffffffffffffffffffffffffffffffffff167fddf252ad1be2c89b69c2b068fc378daa952ba7f163c4a11628f55a4df523b3ef836040516116939190611aa3565b60405180910390a360085f9054906101000a900473ffffffffffffffffffffffffffffffffffffffff1673ffffffffffffffffffffffffffffffffffffffff163373ffffffffffffffffffffffffffffffffffffffff167fddf252ad1be2c89b69c2b068fc378daa952ba7f163c4a11628f55a4df523b3ef846040516117199190611aa3565b60405180910390a360019250505092915050565b60085f9054906101000a900473ffffffffffffffffffffffffffffffffffffffff1681565b6006602052815f5260405f20602052805f5260405f205f91509150505481565b6005602052805f5260405f205f915090505481565b3373ffffffffffffffffffffffffffffffffffffffff165f5f9054906101000a900473ffffffffffffffffffffffffffffffffffffffff1673ffffffffffffffffffffffffffffffffffffffff1614611815576040517f08c379a000000000000000000000000000000000000000000000000000000000815260040161180c90611e3a565b60405180910390fd5b5f73ffffffffffffffffffffffffffffffffffffffff168173ffffffffffffffffffffffffffffffffffffffff1603611883576040517f08c379a000000000000000000000000000000000000000000000000000000000815260040161187a9061223e565b60405180910390fd5b805f5f6101000a81548173ffffffffffffffffffffffffffffffffffffffff021916908373ffffffffffffffffffffffffffffffffffffffff16021790555050565b60606040518060400160405280600c81526020017f52657761726420546f6b656e0000000000000000000000000000000000000000815250905090565b5f81519050919050565b5f82825260208201905092915050565b8281835e5f83830152505050565b5f601f19601f8301169050919050565b5f61194482611902565b61194e818561190c565b935061195e81856020860161191c565b6119678161192a565b840191505092915050565b5f6020820190508181035f83015261198a818461193a565b905092915050565b5f5ffd5b5f73ffffffffffffffffffffffffffffffffffffffff82169050919050565b5f6119bf82611996565b9050919050565b6119cf816119b5565b81146119d9575f5ffd5b50565b5f813590506119ea816119c6565b92915050565b5f819050919050565b611a02816119f0565b8114611a0c575f5ffd5b50565b5f81359050611a1d816119f9565b92915050565b5f5f60408385031215611a3957611a38611992565b5b5f611a46858286016119dc565b9250506020611a5785828601611a0f565b9150509250929050565b5f8115159050919050565b611a7581611a61565b82525050565b5f602082019050611a8e5f830184611a6c565b92915050565b611a9d816119f0565b82525050565b5f602082019050611ab65f830184611a94565b92915050565b5f5f5f60608486031215611ad357611ad2611992565b5b5f611ae0868287016119dc565b9350506020611af1868287016119dc565b9250506040611b0286828701611a0f565b9150509250925092565b5f60208284031215611b2157611b20611992565b5b5f611b2e84828501611a0f565b91505092915050565b5f60208284031215611b4c57611b4b611992565b5b5f611b59848285016119dc565b91505092915050565b611b6b816119b5565b82525050565b5f602082019050611b845f830184611b62565b92915050565b5f5f60408385031215611ba057611b9f611992565b5b5f611bad858286016119dc565b9250506020611bbe858286016119dc565b9150509250929050565b7f4e487b71000000000000000000000000000000000000000000000000000000005f52602260045260245ffd5b5f6002820490506001821680611c0c57607f821691505b602082108103611c1f57611c1e611bc8565b5b50919050565b7f43616e6e6f74207472616e7366657220746f207a65726f2061646472657373005f82015250565b5f611c59601f8361190c565b9150611c6482611c25565b602082019050919050565b5f6020820190508181035f830152611c8681611c4d565b9050919050565b7f416c6c6f77616e636520657863656564656400000000000000000000000000005f82015250565b5f611cc160128361190c565b9150611ccc82611c8d565b602082019050919050565b5f6020820190508181035f830152611cee81611cb5565b9050919050565b7f496e73756666696369656e742062616c616e63650000000000000000000000005f82015250565b5f611d2960148361190c565b9150611d3482611cf5565b602082019050919050565b5f6020820190508181035f830152611d5681611d1d565b9050919050565b7f4e487b71000000000000000000000000000000000000000000000000000000005f52601160045260245ffd5b5f611d94826119f0565b9150611d9f836119f0565b9250828203905081811115611db757611db6611d5d565b5b92915050565b5f611dc7826119f0565b9150611dd2836119f0565b9250828201905080821115611dea57611de9611d5d565b5b92915050565b7f596f7520617265206e6f74206f776e65720000000000000000000000000000005f82015250565b5f611e2460118361190c565b9150611e2f82611df0565b602082019050919050565b5f6020820190508181035f830152611e5181611e18565b9050919050565b7f436f6e7472616374206973206e6f7420706175736564000000000000000000005f82015250565b5f611e8c60168361190c565b9150611e9782611e58565b602082019050919050565b5f6020820190508181035f830152611eb981611e80565b9050919050565b7f436f6e74726163742069732070617573656400000000000000000000000000005f82015250565b5f611ef460128361190c565b9150611eff82611ec0565b602082019050919050565b5f6020820190508181035f830152611f2181611ee8565b9050919050565b7f416d6f756e74206d7573742062652067726561746572207468616e207a65726f5f82015250565b5f611f5c60208361190c565b9150611f6782611f28565b602082019050919050565b5f6020820190508181035f830152611f8981611f50565b9050919050565b7f43616e6e6f74206d696e7420746f207a65726f206164647265737300000000005f82015250565b5f611fc4601b8361190c565b9150611fcf82611f90565b602082019050919050565b5f6020820190508181035f830152611ff181611fb8565b9050919050565b7f496e73756666696369656e742062616c616e636520746f206275726e000000005f82015250565b5f61202c601c8361190c565b915061203782611ff8565b602082019050919050565b5f6020820190508181035f83015261205981612020565b9050919050565b7f4665652063616e6e6f74206578636565642031302500000000000000000000005f82015250565b5f61209460158361190c565b915061209f82612060565b602082019050919050565b5f6020820190508181035f8301526120c181612088565b9050919050565b7f43616e6e6f7420736574207a65726f20616464726573732061732066656520635f8201527f6f6c6c6563746f72000000000000000000000000000000000000000000000000602082015250565b5f61212260288361190c565b915061212d826120c8565b604082019050919050565b5f6020820190508181035f83015261214f81612116565b9050919050565b5f612160826119f0565b915061216b836119f0565b9250828202612179816119f0565b915082820484148315176121905761218f611d5d565b5b5092915050565b7f4e487b71000000000000000000000000000000000000000000000000000000005f52601260045260245ffd5b5f6121ce826119f0565b91506121d9836119f0565b9250826121e9576121e8612197565b5b828204905092915050565b7f4e6577206f776e65722063616e6e6f74206265207a65726f20616464726573735f82015250565b5f61222860208361190c565b9150612233826121f4565b602082019050919050565b5f6020820190508181035f8301526122558161221c565b905091905056fea2646970667358221220d9cf25bc9d29c8c633bc30cea81736d804ca30f54ec496c9efa74edb19bb121164736f6c634300081e0033","linkReferences":{}},"methodIdentifiers":{"allowance(address,address)":"dd62ed3e","approve(address,uint256)":"095ea7b3","balance(address)":"e3d670d7","balanceOf(address)":"70a08231","burn(uint256)":"42966c68","decimals()":"313ce567","feeCollector()":"c415b95c","getBalance()":"12065fe0","getTokenType()":"fcab1819","mint(address,uint256)":"40c10f19","name()":"06fdde03","owner()":"8da5cb5b","pause()":"8456cb59","paused()":"5c975abb","setFeeCollector(address)":"a42dce80","setFeePercent(uint256)":"7ce3489b","symbol()":"95d89b41","totalCollectedFees()":"96bd072c","totalSupply()":"18160ddd","transfer(address,uint256)":"a9059cbb","transferFeePercent()":"94544e64","transferFrom(address,address,uint256)":"23b872dd","transferOwnership(address)":"f2fde38b","unpause()":"3f4ba83a"},"id":0}