{"abi":[{"type":"constructor","inputs":[{"name":"_name","type":"string","internalType":"string"},{"name":"_symbol","type":"string","internalType":"string"},{"name":"initialSupply","type":"uint256","internalType":"uint256"}],"stateMutability":"nonpayable"},{"type":"function","name":"allowance","inputs":[{"name":"","type":"address","internalType":"address"},{"name":"","type":"address","internalType":"address"}],"outputs":[{"name":"","type":"uint256","internalType":"uint256"}],"stateMutability":"view"},{"type":"function","name":"approve","inputs":[{"name":"spender","type":"address","internalType":"address"},{"name":"amount","type":"uint256","internalType":"uint256"}],"outputs":[{"name":"","type":"bool","internalType":"bool"}],"stateMutability":"nonpayable"},{"type":"function","name":"balance","inputs":[{"name":"","type":"address","internalType":"address"}],"outputs":[{"name":"","type":"uint256","internalType":"uint256"}],"stateMutability":"view"},{"type":"function","name":"balanceOf","inputs":[{"name":"account","type":"address","internalType":"address"}],"outputs":[{"name":"","type":"uint256","internalType":"uint256"}],"stateMutability":"view"},{"type":"function","name":"burn","inputs":[{"name":"amount","type":"uint256","internalType":"uint256"}],"outputs":[{"name":"","type":"bool","internalType":"bool"}],"stateMutability":"nonpayable"},{"type":"function","name":"calculateReward","inputs":[{"name":"staker","type":"address","internalType":"address"}],"outputs":[{"name":"","type":"uint256","internalType":"uint256"}],"stateMutability":"view"},{"type":"function","name":"claimReward","inputs":[],"outputs":[],"stateMutability":"nonpayable"},{"type":"function","name":"decimals","inputs":[],"outputs":[{"name":"","type":"uint256","internalType":"uint256"}],"stateMutability":"view"},{"type":"function","name":"getBalance","inputs":[],"outputs":[{"name":"","type":"uint256","internalType":"uint256"}],"stateMutability":"view"},{"type":"function","name":"getStakeInfo","inputs":[{"name":"staker","type":"address","internalType":"address"}],"outputs":[{"name":"amount","type":"uint256","internalType":"uint256"},{"name":"duration","type":"uint256","internalType":"uint256"},{"name":"pendingReward","type":"uint256","internalType":"uint256"},{"name":"totalClaimed","type":"uint256","internalType":"uint256"}],"stateMutability":"view"},{"type":"function","name":"getTokenType","inputs":[],"outputs":[{"name":"","type":"string","internalType":"string"}],"stateMutability":"pure"},{"type":"function","name":"mint","inputs":[{"name":"to","type":"address","internalType":"address"},{"name":"amount","type":"uint256","internalType":"uint256"}],"outputs":[{"name":"","type":"bool","internalType":"bool"}],"stateMutability":"nonpayable"},{"type":"function","name":"name","inputs":[],"outputs":[{"name":"","type":"string","internalType":"string"}],"stateMutability":"view"},{"type":"function","name":"owner","inputs":[],"outputs":[{"name":"","type":"address","internalType":"address"}],"stateMutability":"view"},{"type":"function","name":"pause","inputs":[],"outputs":[],"stateMutability":"nonpayable"},{"type":"function","name":"paused","inputs":[],"outputs":[{"name":"","type":"bool","internalType":"bool"}],"stateMutability":"view"},{"type":"function","name":"rewardPerSecond","inputs":[],"outputs":[{"name":"","type":"uint256","internalType":"uint256"}],"stateMutability":"view"},{"type":"function","name":"setRewardPerSecond","inputs":[{"name":"newRate","type":"uint256","internalType":"uint256"}],"outputs":[],"stateMutability":"nonpayable"},{"type":"function","name":"stake","inputs":[{"name":"amount","type":"uint256","internalType":"uint256"}],"outputs":[],"stateMutability":"nonpayable"},{"type":"function","name":"stakes","inputs":[{"name":"","type":"address","internalType":"address"}],"outputs":[{"name":"amount","type":"uint256","internalType":"uint256"},{"name":"startTime","type":"uint256","internalType":"uint256"},{"name":"rewardClaimed","type":"uint256","internalType":"uint256"}],"stateMutability":"view"},{"type":"function","name":"symbol","inputs":[],"outputs":[{"name":"","type":"string","internalType":"string"}],"stateMutability":"view"},{"type":"function","name":"totalStaked","inputs":[],"outputs":[{"name":"","type":"uint256","internalType":"uint256"}],"stateMutability":"view"},{"type":"function","name":"totalSupply","inputs":[],"outputs":[{"name":"","type":"uint256","internalType":"uint256"}],"stateMutability":"view"},{"type":"function","name":"transfer","inputs":[{"name":"to","type":"address","internalType":"address"},{"name":"amount","type":"uint256","internalType":"uint256"}],"outputs":[{"name":"","type":"bool","internalType":"bool"}],"stateMutability":"nonpayable"},{"type":"function","name":"transferFrom","inputs":[{"name":"from","type":"address","internalType":"address"},{"name":"to","type":"address","internalType":"address"},{"name":"amount","type":"uint256","internalType":"uint256"}],"outputs":[{"name":"","type":"bool","internalType":"bool"}],"stateMutability":"nonpayable"},{"type":"function","name":"transferOwnership","inputs":[{"name":"newOwner","type":"address","internalType":"address"}],"outputs":[],"stateMutability":"nonpayable"},{"type":"function","name":"unpause","inputs":[],"outputs":[],"stateMutability":"nonpayable"},{"type":"function","name":"unstake","inputs":[{"name":"amount","type":"uint256","internalType":"uint256"}],"outputs":[],"stateMutability":"nonpayable"},{"type":"event","name":"Approve","inputs":[{"name":"from","type":"address","indexed":true,"internalType":"address"},{"name":"spender","type":"address","indexed":true,"internalType":"address"},{"name":"amount","type":"uint256","indexed":false,"internalType":"uint256"}],"anonymous":false},{"type":"event","name":"Burn","inputs":[{"name":"owner","type":"address","indexed":true,"internalType":"address"},{"name":"amount","type":"uint256","indexed":true,"internalType":"uint256"}],"anonymous":false},{"type":"event","name":"Mint","inputs":[{"name":"owner","type":"address","indexed":true,"internalType":"address"},{"name":"amount","type":"uint256","indexed":true,"internalType":"uint256"}],"anonymous":false},{"type":"event","name":"RewardClaimed","inputs":[{"name":"user","type":"address","indexed":true,"internalType":"address"},{"name":"reward","type":"uint256","indexed":false,"internalType":"uint256"}],"anonymous":false},{"type":"event","name":"Staked","inputs":[{"name":"user","type":"address","indexed":true,"internalType":"address"},{"name":"amount","type":"uint256","indexed":false,"internalType":"uint256"}],"anonymous":false},{"type":"event","name":"Transfer","inputs":[{"name":"from","type":"address","indexed":true,"internalType":"address"},{"name":"to","type":"address","indexed":true,"internalType":"address"},{"name":"amount","type":"uint256","indexed":false,"internalType":"uint256"}],"anonymous":false},{"type":"event","name":"Unstaked","inputs":[{"name":"user","type":"address","indexed":true,"internalType":"address"},{"name":"amount","type":"uint256","indexed":false,"internalType":"uint256"}],"anonymous":false}],"bytecode":{"object":"0x60806040526001600755348015610014575f5ffd5b506040516132f33803806132f3833981810160405281019061003691906102f6565b828282335f5f6101000a81548173ffffffffffffffffffffffffffffffffffffffff021916908373ffffffffffffffffffffffffffffffffffffffff16021790555082600190816100879190610585565b5081600290816100979190610585565b506012600481905550600454600a6100af91906107b0565b816100ba91906107fa565b60038190555060035460055f3373ffffffffffffffffffffffffffffffffffffffff1673ffffffffffffffffffffffffffffffffffffffff1681526020019081526020015f20819055503373ffffffffffffffffffffffffffffffffffffffff165f73ffffffffffffffffffffffffffffffffffffffff167fddf252ad1be2c89b69c2b068fc378daa952ba7f163c4a11628f55a4df523b3ef600354604051610163919061084a565b60405180910390a3505050505050610863565b5f604051905090565b5f5ffd5b5f5ffd5b5f5ffd5b5f5ffd5b5f601f19601f8301169050919050565b7f4e487b71000000000000000000000000000000000000000000000000000000005f52604160045260245ffd5b6101d58261018f565b810181811067ffffffffffffffff821117156101f4576101f361019f565b5b80604052505050565b5f610206610176565b905061021282826101cc565b919050565b5f67ffffffffffffffff8211156102315761023061019f565b5b61023a8261018f565b9050602081019050919050565b8281835e5f83830152505050565b5f61026761026284610217565b6101fd565b9050828152602081018484840111156102835761028261018b565b5b61028e848285610247565b509392505050565b5f82601f8301126102aa576102a9610187565b5b81516102ba848260208601610255565b91505092915050565b5f819050919050565b6102d5816102c3565b81146102df575f5ffd5b50565b5f815190506102f0816102cc565b92915050565b5f5f5f6060848603121561030d5761030c61017f565b5b5f84015167ffffffffffffffff81111561032a57610329610183565b5b61033686828701610296565b935050602084015167ffffffffffffffff81111561035757610356610183565b5b61036386828701610296565b9250506040610374868287016102e2565b9150509250925092565b5f81519050919050565b7f4e487b71000000000000000000000000000000000000000000000000000000005f52602260045260245ffd5b5f60028204905060018216806103cc57607f821691505b6020821081036103df576103de610388565b5b50919050565b5f819050815f5260205f209050919050565b5f6020601f8301049050919050565b5f82821b905092915050565b5f600883026104417fffffffffffffffffffffffffffffffffffffffffffffffffffffffffffffffff82610406565b61044b8683610406565b95508019841693508086168417925050509392505050565b5f819050919050565b5f61048661048161047c846102c3565b610463565b6102c3565b9050919050565b5f819050919050565b61049f8361046c565b6104b36104ab8261048d565b848454610412565b825550505050565b5f5f905090565b6104ca6104bb565b6104d5818484610496565b505050565b5b818110156104f8576104ed5f826104c2565b6001810190506104db565b5050565b601f82111561053d5761050e816103e5565b610517846103f7565b81016020851015610526578190505b61053a610532856103f7565b8301826104da565b50505b505050565b5f82821c905092915050565b5f61055d5f1984600802610542565b1980831691505092915050565b5f610575838361054e565b9150826002028217905092915050565b61058e8261037e565b67ffffffffffffffff8111156105a7576105a661019f565b5b6105b182546103b5565b6105bc8282856104fc565b5f60209050601f8311600181146105ed575f84156105db578287015190505b6105e5858261056a565b86555061064c565b601f1984166105fb866103e5565b5f5b82811015610622578489015182556001820191506020850194506020810190506105fd565b8683101561063f578489015161063b601f89168261054e565b8355505b6001600288020188555050505b505050505050565b7f4e487b71000000000000000000000000000000000000000000000000000000005f52601160045260245ffd5b5f8160011c9050919050565b5f5f8291508390505b60018511156106d6578086048111156106b2576106b1610654565b5b60018516156106c15780820291505b80810290506106cf85610681565b9450610696565b94509492505050565b5f826106ee57600190506107a9565b816106fb575f90506107a9565b8160018114610711576002811461071b5761074a565b60019150506107a9565b60ff84111561072d5761072c610654565b5b8360020a91508482111561074457610743610654565b5b506107a9565b5060208310610133831016604e8410600b841016171561077f5782820a90508381111561077a57610779610654565b5b6107a9565b61078c848484600161068d565b925090508184048111156107a3576107a2610654565b5b81810290505b9392505050565b5f6107ba826102c3565b91506107c5836102c3565b92506107f27fffffffffffffffffffffffffffffffffffffffffffffffffffffffffffffffff84846106df565b905092915050565b5f610804826102c3565b915061080f836102c3565b925082820261081d816102c3565b9150828204841483151761083457610833610654565b5b5092915050565b610844816102c3565b82525050565b5f60208201905061085d5f83018461083b565b92915050565b612a83806108705f395ff3fe608060405234801561000f575f5ffd5b50600436106101c2575f3560e01c8063817b1cd2116100f7578063b88a802f11610095578063dd62ed3e1161006f578063dd62ed3e146104fb578063e3d670d71461052b578063f2fde38b1461055b578063fcab181914610577576101c2565b8063b88a802f1461048e578063c345315314610498578063d82e3962146104cb576101c2565b80638f10369a116100d15780638f10369a1461040657806395d89b4114610424578063a694fc3a14610442578063a9059cbb1461045e576101c2565b8063817b1cd2146103c05780638456cb59146103de5780638da5cb5b146103e8576101c2565b8063313ce5671161016457806342966c681161013e57806342966c68146103265780635c975abb1461035657806366da58151461037457806370a0823114610390576101c2565b8063313ce567146102ce5780633f4ba83a146102ec57806340c10f19146102f6576101c2565b806316934fc4116101a057806316934fc41461023257806318160ddd1461026457806323b872dd146102825780632e17de78146102b2576101c2565b806306fdde03146101c6578063095ea7b3146101e457806312065fe014610214575b5f5ffd5b6101ce610595565b6040516101db91906120a9565b60405180910390f35b6101fe60048036038101906101f9919061215a565b610621565b60405161020b91906121b2565b60405180910390f35b61021c61070e565b60405161022991906121da565b60405180910390f35b61024c600480360381019061024791906121f3565b610752565b60405161025b9392919061221e565b60405180910390f35b61026c610778565b60405161027991906121da565b60405180910390f35b61029c60048036038101906102979190612253565b61077e565b6040516102a991906121b2565b60405180910390f35b6102cc60048036038101906102c791906122a3565b610acc565b005b6102d6610d4c565b6040516102e391906121da565b60405180910390f35b6102f4610d52565b005b610310600480360381019061030b919061215a565b610e49565b60405161031d91906121b2565b60405180910390f35b610340600480360381019061033b91906122a3565b6110f5565b60405161034d91906121b2565b60405180910390f35b61035e611321565b60405161036b91906121b2565b60405180910390f35b61038e600480360381019061038991906122a3565b611333565b005b6103aa60048036038101906103a591906121f3565b61141a565b6040516103b791906121da565b60405180910390f35b6103c8611460565b6040516103d591906121da565b60405180910390f35b6103e6611466565b005b6103f061155f565b6040516103fd91906122dd565b60405180910390f35b61040e611583565b60405161041b91906121da565b60405180910390f35b61042c611589565b60405161043991906120a9565b60405180910390f35b61045c600480360381019061045791906122a3565b611615565b005b6104786004803603810190610473919061215a565b61187d565b60405161048591906121b2565b60405180910390f35b610496611ad0565b005b6104b260048036038101906104ad91906121f3565b611d1e565b6040516104c294939291906122f6565b60405180910390f35b6104e560048036038101906104e091906121f3565b611dbc565b6040516104f291906121da565b60405180910390f35b61051560048036038101906105109190612339565b611e89565b60405161052291906121da565b60405180910390f35b610545600480360381019061054091906121f3565b611ea9565b60405161055291906121da565b60405180910390f35b610575600480360381019061057091906121f3565b611ebe565b005b61057f611ffc565b60405161058c91906120a9565b60405180910390f35b600180546105a2906123a4565b80601f01602080910402602001604051908101604052809291908181526020018280546105ce906123a4565b80156106195780601f106105f057610100808354040283529160200191610619565b820191905f5260205f20905b8154815290600101906020018083116105fc57829003601f168201915b505050505081565b5f8160065f3373ffffffffffffffffffffffffffffffffffffffff1673ffffffffffffffffffffffffffffffffffffffff1681526020019081526020015f205f8573ffffffffffffffffffffffffffffffffffffffff1673ffffffffffffffffffffffffffffffffffffffff1681526020019081526020015f20819055508273ffffffffffffffffffffffffffffffffffffffff163373ffffffffffffffffffffffffffffffffffffffff167f6e11fb1b7f119e3f2fa29896ef5fdf8b8a2d0d4df6fe90ba8668e7d8b2ffa25e846040516106fc91906121da565b60405180910390a36001905092915050565b5f60055f3373ffffffffffffffffffffffffffffffffffffffff1673ffffffffffffffffffffffffffffffffffffffff1681526020019081526020015f2054905090565b6009602052805f5260405f205f91509050805f0154908060010154908060020154905083565b60035481565b5f5f73ffffffffffffffffffffffffffffffffffffffff168373ffffffffffffffffffffffffffffffffffffffff16036107ed576040517f08c379a00000000000000000000000000000000000000000000000000000000081526004016107e49061241e565b60405180910390fd5b60065f8573ffffffffffffffffffffffffffffffffffffffff1673ffffffffffffffffffffffffffffffffffffffff1681526020019081526020015f205f3373ffffffffffffffffffffffffffffffffffffffff1673ffffffffffffffffffffffffffffffffffffffff1681526020019081526020015f20548211156108a8576040517f08c379a000000000000000000000000000000000000000000000000000000000815260040161089f90612486565b60405180910390fd5b60055f8573ffffffffffffffffffffffffffffffffffffffff1673ffffffffffffffffffffffffffffffffffffffff1681526020019081526020015f2054821115610928576040517f08c379a000000000000000000000000000000000000000000000000000000000815260040161091f906124ee565b60405180910390fd5b8160065f8673ffffffffffffffffffffffffffffffffffffffff1673ffffffffffffffffffffffffffffffffffffffff1681526020019081526020015f205f3373ffffffffffffffffffffffffffffffffffffffff1673ffffffffffffffffffffffffffffffffffffffff1681526020019081526020015f205f8282546109af9190612539565b925050819055508160055f8673ffffffffffffffffffffffffffffffffffffffff1673ffffffffffffffffffffffffffffffffffffffff1681526020019081526020015f205f828254610a029190612539565b925050819055508160055f8573ffffffffffffffffffffffffffffffffffffffff1673ffffffffffffffffffffffffffffffffffffffff1681526020019081526020015f205f828254610a55919061256c565b925050819055508273ffffffffffffffffffffffffffffffffffffffff168473ffffffffffffffffffffffffffffffffffffffff167fddf252ad1be2c89b69c2b068fc378daa952ba7f163c4a11628f55a4df523b3ef84604051610ab991906121da565b60405180910390a3600190509392505050565b8060095f3373ffffffffffffffffffffffffffffffffffffffff1673ffffffffffffffffffffffffffffffffffffffff1681526020019081526020015f205f01541015610b4e576040517f08c379a0000000000000000000000000000000000000000000000000000000008152600401610b45906125e9565b60405180910390fd5b610b56611ad0565b8060095f3373ffffffffffffffffffffffffffffffffffffffff1673ffffffffffffffffffffffffffffffffffffffff1681526020019081526020015f205f015f828254610ba49190612539565b925050819055508060055f3373ffffffffffffffffffffffffffffffffffffffff1673ffffffffffffffffffffffffffffffffffffffff1681526020019081526020015f205f828254610bf7919061256c565b925050819055508060085f828254610c0f9190612539565b925050819055505f60095f3373ffffffffffffffffffffffffffffffffffffffff1673ffffffffffffffffffffffffffffffffffffffff1681526020019081526020015f205f015403610cb55760095f3373ffffffffffffffffffffffffffffffffffffffff1673ffffffffffffffffffffffffffffffffffffffff1681526020019081526020015f205f5f82015f9055600182015f9055600282015f90555050610cfb565b4260095f3373ffffffffffffffffffffffffffffffffffffffff1673ffffffffffffffffffffffffffffffffffffffff1681526020019081526020015f20600101819055505b3373ffffffffffffffffffffffffffffffffffffffff167f0f5bb82176feb1b5e747e28471aa92156a04d9f3ab9f45f28e2d704232b93f7582604051610d4191906121da565b60405180910390a250565b60045481565b3373ffffffffffffffffffffffffffffffffffffffff165f5f9054906101000a900473ffffffffffffffffffffffffffffffffffffffff1673ffffffffffffffffffffffffffffffffffffffff1614610de0576040517f08c379a0000000000000000000000000000000000000000000000000000000008152600401610dd790612651565b60405180910390fd5b5f60149054906101000a900460ff16610e2e576040517f08c379a0000000000000000000000000000000000000000000000000000000008152600401610e25906126b9565b60405180910390fd5b5f5f60146101000a81548160ff021916908315150217905550565b5f3373ffffffffffffffffffffffffffffffffffffffff165f5f9054906101000a900473ffffffffffffffffffffffffffffffffffffffff1673ffffffffffffffffffffffffffffffffffffffff1614610ed8576040517f08c379a0000000000000000000000000000000000000000000000000000000008152600401610ecf90612651565b60405180910390fd5b5f60149054906101000a900460ff1615610f27576040517f08c379a0000000000000000000000000000000000000000000000000000000008152600401610f1e90612721565b60405180910390fd5b5f8211610f69576040517f08c379a0000000000000000000000000000000000000000000000000000000008152600401610f6090612789565b60405180910390fd5b5f73ffffffffffffffffffffffffffffffffffffffff168373ffffffffffffffffffffffffffffffffffffffff1603610fd7576040517f08c379a0000000000000000000000000000000000000000000000000000000008152600401610fce906127f1565b60405180910390fd5b8160055f8573ffffffffffffffffffffffffffffffffffffffff1673ffffffffffffffffffffffffffffffffffffffff1681526020019081526020015f205f828254611023919061256c565b925050819055508160035f82825461103b919061256c565b92505081905550818373ffffffffffffffffffffffffffffffffffffffff167f0f6798a560793a54c3bcfe86a93cde1e73087d944c0ea20544137d412139688560405160405180910390a38273ffffffffffffffffffffffffffffffffffffffff165f73ffffffffffffffffffffffffffffffffffffffff167fddf252ad1be2c89b69c2b068fc378daa952ba7f163c4a11628f55a4df523b3ef846040516110e391906121da565b60405180910390a36001905092915050565b5f3373ffffffffffffffffffffffffffffffffffffffff165f5f9054906101000a900473ffffffffffffffffffffffffffffffffffffffff1673ffffffffffffffffffffffffffffffffffffffff1614611184576040517f08c379a000000000000000000000000000000000000000000000000000000000815260040161117b90612651565b60405180910390fd5b60055f3373ffffffffffffffffffffffffffffffffffffffff1673ffffffffffffffffffffffffffffffffffffffff1681526020019081526020015f2054821115611204576040517f08c379a00000000000000000000000000000000000000000000000000000000081526004016111fb90612859565b60405180910390fd5b8160055f3373ffffffffffffffffffffffffffffffffffffffff1673ffffffffffffffffffffffffffffffffffffffff1681526020019081526020015f205f8282546112509190612539565b925050819055508160035f8282546112689190612539565b92505081905550813373ffffffffffffffffffffffffffffffffffffffff167fcc16f5dbb4873280815c1ee09dbd06736cffcc184412cf7a71a0fdb75d397ca560405160405180910390a35f73ffffffffffffffffffffffffffffffffffffffff163373ffffffffffffffffffffffffffffffffffffffff167fddf252ad1be2c89b69c2b068fc378daa952ba7f163c4a11628f55a4df523b3ef8460405161131091906121da565b60405180910390a360019050919050565b5f60149054906101000a900460ff1681565b3373ffffffffffffffffffffffffffffffffffffffff165f5f9054906101000a900473ffffffffffffffffffffffffffffffffffffffff1673ffffffffffffffffffffffffffffffffffffffff16146113c1576040517f08c379a00000000000000000000000000000000000000000000000000000000081526004016113b890612651565b60405180910390fd5b5f811180156113d1575060648111155b611410576040517f08c379a0000000000000000000000000000000000000000000000000000000008152600401611407906128c1565b60405180910390fd5b8060078190555050565b5f60055f8373ffffffffffffffffffffffffffffffffffffffff1673ffffffffffffffffffffffffffffffffffffffff1681526020019081526020015f20549050919050565b60085481565b3373ffffffffffffffffffffffffffffffffffffffff165f5f9054906101000a900473ffffffffffffffffffffffffffffffffffffffff1673ffffffffffffffffffffffffffffffffffffffff16146114f4576040517f08c379a00000000000000000000000000000000000000000000000000000000081526004016114eb90612651565b60405180910390fd5b5f60149054906101000a900460ff1615611543576040517f08c379a000000000000000000000000000000000000000000000000000000000815260040161153a90612721565b60405180910390fd5b60015f60146101000a81548160ff021916908315150217905550565b5f5f9054906101000a900473ffffffffffffffffffffffffffffffffffffffff1681565b60075481565b60028054611596906123a4565b80601f01602080910402602001604051908101604052809291908181526020018280546115c2906123a4565b801561160d5780601f106115e45761010080835404028352916020019161160d565b820191905f5260205f20905b8154815290600101906020018083116115f057829003601f168201915b505050505081565b60055f3373ffffffffffffffffffffffffffffffffffffffff1673ffffffffffffffffffffffffffffffffffffffff1681526020019081526020015f2054811115611695576040517f08c379a000000000000000000000000000000000000000000000000000000000815260040161168c906124ee565b60405180910390fd5b5f81116116d7576040517f08c379a00000000000000000000000000000000000000000000000000000000081526004016116ce90612789565b60405180910390fd5b5f60095f3373ffffffffffffffffffffffffffffffffffffffff1673ffffffffffffffffffffffffffffffffffffffff1681526020019081526020015f205f0154111561172757611726611ad0565b5b8060055f3373ffffffffffffffffffffffffffffffffffffffff1673ffffffffffffffffffffffffffffffffffffffff1681526020019081526020015f205f8282546117739190612539565b925050819055508060095f3373ffffffffffffffffffffffffffffffffffffffff1673ffffffffffffffffffffffffffffffffffffffff1681526020019081526020015f205f015f8282546117c8919061256c565b925050819055504260095f3373ffffffffffffffffffffffffffffffffffffffff1673ffffffffffffffffffffffffffffffffffffffff1681526020019081526020015f20600101819055508060085f828254611825919061256c565b925050819055503373ffffffffffffffffffffffffffffffffffffffff167f9e71bc8eea02a63969f509818f2dafb9254532904319f9dbda79b67bd34a5f3d8260405161187291906121da565b60405180910390a250565b5f5f60149054906101000a900460ff16156118cd576040517f08c379a00000000000000000000000000000000000000000000000000000000081526004016118c490612721565b60405180910390fd5b5f73ffffffffffffffffffffffffffffffffffffffff168373ffffffffffffffffffffffffffffffffffffffff160361193b576040517f08c379a00000000000000000000000000000000000000000000000000000000081526004016119329061241e565b60405180910390fd5b60055f3373ffffffffffffffffffffffffffffffffffffffff1673ffffffffffffffffffffffffffffffffffffffff1681526020019081526020015f20548211156119bb576040517f08c379a00000000000000000000000000000000000000000000000000000000081526004016119b2906124ee565b60405180910390fd5b8160055f3373ffffffffffffffffffffffffffffffffffffffff1673ffffffffffffffffffffffffffffffffffffffff1681526020019081526020015f205f828254611a079190612539565b925050819055508160055f8573ffffffffffffffffffffffffffffffffffffffff1673ffffffffffffffffffffffffffffffffffffffff1681526020019081526020015f205f828254611a5a919061256c565b925050819055508273ffffffffffffffffffffffffffffffffffffffff163373ffffffffffffffffffffffffffffffffffffffff167fddf252ad1be2c89b69c2b068fc378daa952ba7f163c4a11628f55a4df523b3ef84604051611abe91906121da565b60405180910390a36001905092915050565b5f611ada33611dbc565b90505f8111611b1e576040517f08c379a0000000000000000000000000000000000000000000000000000000008152600401611b1590612929565b60405180910390fd5b8060035f828254611b2f919061256c565b925050819055508060055f3373ffffffffffffffffffffffffffffffffffffffff1673ffffffffffffffffffffffffffffffffffffffff1681526020019081526020015f205f828254611b82919061256c565b925050819055508060095f3373ffffffffffffffffffffffffffffffffffffffff1673ffffffffffffffffffffffffffffffffffffffff1681526020019081526020015f206002015f828254611bd8919061256c565b925050819055504260095f3373ffffffffffffffffffffffffffffffffffffffff1673ffffffffffffffffffffffffffffffffffffffff1681526020019081526020015f20600101819055503373ffffffffffffffffffffffffffffffffffffffff167f106f923f993c2149d49b4255ff723acafa1f2d94393f561d3eda32ae348f724182604051611c6a91906121da565b60405180910390a2803373ffffffffffffffffffffffffffffffffffffffff167f0f6798a560793a54c3bcfe86a93cde1e73087d944c0ea20544137d412139688560405160405180910390a33373ffffffffffffffffffffffffffffffffffffffff165f73ffffffffffffffffffffffffffffffffffffffff167fddf252ad1be2c89b69c2b068fc378daa952ba7f163c4a11628f55a4df523b3ef83604051611d1391906121da565b60405180910390a350565b5f5f5f5f5f60095f8773ffffffffffffffffffffffffffffffffffffffff1673ffffffffffffffffffffffffffffffffffffffff1681526020019081526020015f206040518060600160405290815f8201548152602001600182015481526020016002820154815250509050805f0151816020015142611d9e9190612539565b611da788611dbc565b83604001519450945094509450509193509193565b5f5f60095f8473ffffffffffffffffffffffffffffffffffffffff1673ffffffffffffffffffffffffffffffffffffffff1681526020019081526020015f206040518060600160405290815f82015481526020016001820154815260200160028201548152505090505f815f015103611e38575f915050611e84565b5f816020015142611e499190612539565b90505f670de0b6b3a7640000835f015160075484611e679190612947565b611e719190612947565b611e7b91906129b5565b90508093505050505b919050565b6006602052815f5260405f20602052805f5260405f205f91509150505481565b6005602052805f5260405f205f915090505481565b3373ffffffffffffffffffffffffffffffffffffffff165f5f9054906101000a900473ffffffffffffffffffffffffffffffffffffffff1673ffffffffffffffffffffffffffffffffffffffff1614611f4c576040517f08c379a0000000000000000000000000000000000000000000000000000000008152600401611f4390612651565b60405180910390fd5b5f73ffffffffffffffffffffffffffffffffffffffff168173ffffffffffffffffffffffffffffffffffffffff1603611fba576040517f08c379a0000000000000000000000000000000000000000000000000000000008152600401611fb190612a2f565b60405180910390fd5b805f5f6101000a81548173ffffffffffffffffffffffffffffffffffffffff021916908373ffffffffffffffffffffffffffffffffffffffff16021790555050565b60606040518060400160405280600d81526020017f5374616b696e6720546f6b656e00000000000000000000000000000000000000815250905090565b5f81519050919050565b5f82825260208201905092915050565b8281835e5f83830152505050565b5f601f19601f8301169050919050565b5f61207b82612039565b6120858185612043565b9350612095818560208601612053565b61209e81612061565b840191505092915050565b5f6020820190508181035f8301526120c18184612071565b905092915050565b5f5ffd5b5f73ffffffffffffffffffffffffffffffffffffffff82169050919050565b5f6120f6826120cd565b9050919050565b612106816120ec565b8114612110575f5ffd5b50565b5f81359050612121816120fd565b92915050565b5f819050919050565b61213981612127565b8114612143575f5ffd5b50565b5f8135905061215481612130565b92915050565b5f5f604083850312156121705761216f6120c9565b5b5f61217d85828601612113565b925050602061218e85828601612146565b9150509250929050565b5f8115159050919050565b6121ac81612198565b82525050565b5f6020820190506121c55f8301846121a3565b92915050565b6121d481612127565b82525050565b5f6020820190506121ed5f8301846121cb565b92915050565b5f60208284031215612208576122076120c9565b5b5f61221584828501612113565b91505092915050565b5f6060820190506122315f8301866121cb565b61223e60208301856121cb565b61224b60408301846121cb565b949350505050565b5f5f5f6060848603121561226a576122696120c9565b5b5f61227786828701612113565b935050602061228886828701612113565b925050604061229986828701612146565b9150509250925092565b5f602082840312156122b8576122b76120c9565b5b5f6122c584828501612146565b91505092915050565b6122d7816120ec565b82525050565b5f6020820190506122f05f8301846122ce565b92915050565b5f6080820190506123095f8301876121cb565b61231660208301866121cb565b61232360408301856121cb565b61233060608301846121cb565b95945050505050565b5f5f6040838503121561234f5761234e6120c9565b5b5f61235c85828601612113565b925050602061236d85828601612113565b9150509250929050565b7f4e487b71000000000000000000000000000000000000000000000000000000005f52602260045260245ffd5b5f60028204905060018216806123bb57607f821691505b6020821081036123ce576123cd612377565b5b50919050565b7f43616e6e6f74207472616e7366657220746f207a65726f2061646472657373005f82015250565b5f612408601f83612043565b9150612413826123d4565b602082019050919050565b5f6020820190508181035f830152612435816123fc565b9050919050565b7f416c6c6f77616e636520657863656564656400000000000000000000000000005f82015250565b5f612470601283612043565b915061247b8261243c565b602082019050919050565b5f6020820190508181035f83015261249d81612464565b9050919050565b7f496e73756666696369656e742062616c616e63650000000000000000000000005f82015250565b5f6124d8601483612043565b91506124e3826124a4565b602082019050919050565b5f6020820190508181035f830152612505816124cc565b9050919050565b7f4e487b71000000000000000000000000000000000000000000000000000000005f52601160045260245ffd5b5f61254382612127565b915061254e83612127565b92508282039050818111156125665761256561250c565b5b92915050565b5f61257682612127565b915061258183612127565b92508282019050808211156125995761259861250c565b5b92915050565b7f496e73756666696369656e74207374616b656420616d6f756e740000000000005f82015250565b5f6125d3601a83612043565b91506125de8261259f565b602082019050919050565b5f6020820190508181035f830152612600816125c7565b9050919050565b7f596f7520617265206e6f74206f776e65720000000000000000000000000000005f82015250565b5f61263b601183612043565b915061264682612607565b602082019050919050565b5f6020820190508181035f8301526126688161262f565b9050919050565b7f436f6e7472616374206973206e6f7420706175736564000000000000000000005f82015250565b5f6126a3601683612043565b91506126ae8261266f565b602082019050919050565b5f6020820190508181035f8301526126d081612697565b9050919050565b7f436f6e74726163742069732070617573656400000000000000000000000000005f82015250565b5f61270b601283612043565b9150612716826126d7565b602082019050919050565b5f6020820190508181035f830152612738816126ff565b9050919050565b7f416d6f756e74206d7573742062652067726561746572207468616e207a65726f5f82015250565b5f612773602083612043565b915061277e8261273f565b602082019050919050565b5f6020820190508181035f8301526127a081612767565b9050919050565b7f43616e6e6f74206d696e7420746f207a65726f206164647265737300000000005f82015250565b5f6127db601b83612043565b91506127e6826127a7565b602082019050919050565b5f6020820190508181035f830152612808816127cf565b9050919050565b7f496e73756666696369656e742062616c616e636520746f206275726e000000005f82015250565b5f612843601c83612043565b915061284e8261280f565b602082019050919050565b5f6020820190508181035f83015261287081612837565b9050919050565b7f52617465206d757374206265206265747765656e20312d3130300000000000005f82015250565b5f6128ab601a83612043565b91506128b682612877565b602082019050919050565b5f6020820190508181035f8301526128d88161289f565b9050919050565b7f4e6f207265776172647320746f20636c61696d000000000000000000000000005f82015250565b5f612913601383612043565b915061291e826128df565b602082019050919050565b5f6020820190508181035f83015261294081612907565b9050919050565b5f61295182612127565b915061295c83612127565b925082820261296a81612127565b915082820484148315176129815761298061250c565b5b5092915050565b7f4e487b71000000000000000000000000000000000000000000000000000000005f52601260045260245ffd5b5f6129bf82612127565b91506129ca83612127565b9250826129da576129d9612988565b5b828204905092915050565b7f4e6577206f776e65722063616e6e6f74206265207a65726f20616464726573735f82015250565b5f612a19602083612043565b9150612a24826129e5565b602082019050919050565b5f6020820190508181035f830152612a4681612a0d565b905091905056fea264697066735822122060d2b28b1a2f1d96df13daa5d9d17078f74dd8d03d01f54a23066ed1915efea564736f6c634300081e0033","linkReferences":{}},"methodIdentifiers":{"allowance(address,address)":"dd62ed3e","approve(address,uint256)":"095ea7b3","balance(address)":"e3d670d7","balanceOf(address)":"70a08231","burn(uint256)":"42966c68","calculateReward(address)":"d82e3962","claimReward()":"b88a802f","decimals()":"313ce567","getBalance()":"12065fe0","getStakeInfo(address)":"c3453153","getTokenType()":"fcab1819","mint(address,uint256)":"40c10f19","name()":"06fdde03","owner()":"8da5cb5b","pause()":"8456cb59","paused()":"5c975abb","rewardPerSecond()":"8f10369a","setRewardPerSecond(uint256)":"66da5815","stake(uint256)":"a694fc3a","stakes(address)":"16934fc4","symbol()":"95d89b41","totalStaked()":"817b1cd2","totalSupply()":"18160ddd","transfer(address,uint256)":"a9059cbb","transferFrom(address,address,uint256)":"23b872dd","transferOwnership(address)":"f2fde38b","unpause()":"3f4ba83a","unstake(uint256)":"2e17de78"},"id":0}